{
  "contractName": "Trealos",
  "abi": [
    {
      "inputs": [],
      "stateMutability": "nonpayable",
      "type": "constructor"
    },
    {
      "anonymous": false,
      "inputs": [
        {
          "indexed": true,
          "internalType": "address",
          "name": "owner",
          "type": "address"
        },
        {
          "indexed": true,
          "internalType": "address",
          "name": "spender",
          "type": "address"
        },
        {
          "indexed": false,
          "internalType": "uint256",
          "name": "value",
          "type": "uint256"
        }
      ],
      "name": "Approval",
      "type": "event"
    },
    {
      "anonymous": false,
      "inputs": [
        {
          "indexed": true,
          "internalType": "address",
          "name": "from",
          "type": "address"
        },
        {
          "indexed": true,
          "internalType": "address",
          "name": "to",
          "type": "address"
        },
        {
          "indexed": false,
          "internalType": "uint256",
          "name": "value",
          "type": "uint256"
        }
      ],
      "name": "Transfer",
      "type": "event"
    },
    {
      "stateMutability": "payable",
      "type": "fallback",
      "payable": true
    },
    {
      "inputs": [],
      "name": "admin",
      "outputs": [
        {
          "internalType": "address",
          "name": "",
          "type": "address"
        }
      ],
      "stateMutability": "view",
      "type": "function",
      "constant": true
    },
    {
      "inputs": [
        {
          "internalType": "address",
          "name": "owner",
          "type": "address"
        },
        {
          "internalType": "address",
          "name": "spender",
          "type": "address"
        }
      ],
      "name": "allowance",
      "outputs": [
        {
          "internalType": "uint256",
          "name": "",
          "type": "uint256"
        }
      ],
      "stateMutability": "view",
      "type": "function",
      "constant": true
    },
    {
      "inputs": [
        {
          "internalType": "address",
          "name": "spender",
          "type": "address"
        },
        {
          "internalType": "uint256",
          "name": "amount",
          "type": "uint256"
        }
      ],
      "name": "approve",
      "outputs": [
        {
          "internalType": "bool",
          "name": "",
          "type": "bool"
        }
      ],
      "stateMutability": "nonpayable",
      "type": "function"
    },
    {
      "inputs": [
        {
          "internalType": "address",
          "name": "account",
          "type": "address"
        }
      ],
      "name": "balanceOf",
      "outputs": [
        {
          "internalType": "uint256",
          "name": "",
          "type": "uint256"
        }
      ],
      "stateMutability": "view",
      "type": "function",
      "constant": true
    },
    {
      "inputs": [],
      "name": "decimals",
      "outputs": [
        {
          "internalType": "uint8",
          "name": "",
          "type": "uint8"
        }
      ],
      "stateMutability": "view",
      "type": "function",
      "constant": true
    },
    {
      "inputs": [
        {
          "internalType": "address",
          "name": "spender",
          "type": "address"
        },
        {
          "internalType": "uint256",
          "name": "subtractedValue",
          "type": "uint256"
        }
      ],
      "name": "decreaseAllowance",
      "outputs": [
        {
          "internalType": "bool",
          "name": "",
          "type": "bool"
        }
      ],
      "stateMutability": "nonpayable",
      "type": "function"
    },
    {
      "inputs": [
        {
          "internalType": "address",
          "name": "spender",
          "type": "address"
        },
        {
          "internalType": "uint256",
          "name": "addedValue",
          "type": "uint256"
        }
      ],
      "name": "increaseAllowance",
      "outputs": [
        {
          "internalType": "bool",
          "name": "",
          "type": "bool"
        }
      ],
      "stateMutability": "nonpayable",
      "type": "function"
    },
    {
      "inputs": [],
      "name": "name",
      "outputs": [
        {
          "internalType": "string",
          "name": "",
          "type": "string"
        }
      ],
      "stateMutability": "view",
      "type": "function",
      "constant": true
    },
    {
      "inputs": [],
      "name": "symbol",
      "outputs": [
        {
          "internalType": "string",
          "name": "",
          "type": "string"
        }
      ],
      "stateMutability": "view",
      "type": "function",
      "constant": true
    },
    {
      "inputs": [],
      "name": "totalSupply",
      "outputs": [
        {
          "internalType": "uint256",
          "name": "",
          "type": "uint256"
        }
      ],
      "stateMutability": "view",
      "type": "function",
      "constant": true
    },
    {
      "inputs": [
        {
          "internalType": "address",
          "name": "recipient",
          "type": "address"
        },
        {
          "internalType": "uint256",
          "name": "amount",
          "type": "uint256"
        }
      ],
      "name": "transfer",
      "outputs": [
        {
          "internalType": "bool",
          "name": "",
          "type": "bool"
        }
      ],
      "stateMutability": "nonpayable",
      "type": "function"
    },
    {
      "inputs": [
        {
          "internalType": "address",
          "name": "sender",
          "type": "address"
        },
        {
          "internalType": "address",
          "name": "recipient",
          "type": "address"
        },
        {
          "internalType": "uint256",
          "name": "amount",
          "type": "uint256"
        }
      ],
      "name": "transferFrom",
      "outputs": [
        {
          "internalType": "bool",
          "name": "",
          "type": "bool"
        }
      ],
      "stateMutability": "nonpayable",
      "type": "function"
    },
    {
      "inputs": [
        {
          "internalType": "uint256",
          "name": "",
          "type": "uint256"
        }
      ],
      "name": "users",
      "outputs": [
        {
          "internalType": "address",
          "name": "",
          "type": "address"
        }
      ],
      "stateMutability": "view",
      "type": "function",
      "constant": true
    },
    {
      "inputs": [
        {
          "internalType": "address",
          "name": "",
          "type": "address"
        }
      ],
      "name": "whitelist",
      "outputs": [
        {
          "internalType": "uint256",
          "name": "",
          "type": "uint256"
        }
      ],
      "stateMutability": "view",
      "type": "function",
      "constant": true
    },
    {
      "inputs": [
        {
          "internalType": "address",
          "name": "newUser",
          "type": "address"
        }
      ],
      "name": "adminAddUser",
      "outputs": [],
      "stateMutability": "nonpayable",
      "type": "function"
    },
    {
      "inputs": [],
      "name": "airDrop",
      "outputs": [],
      "stateMutability": "nonpayable",
      "type": "function"
    }
  ],
  "bytecode": "0x60806040526000600b553480156200001657600080fd5b506040518060400160405280600781526020017f547265616c6f73000000000000000000000000000000000000000000000000008152506040518060400160405280600381526020017f54524c000000000000000000000000000000000000000000000000000000000081525081600390805190602001906200009b92919062000162565b508060049080519060200190620000b492919062000162565b506012600560006101000a81548160ff021916908360ff1602179055505050620000e560026200014460201b60201c565b7002f111fd948e0f64738b9c2fa0a0015f9060068190555033600a60006101000a81548173ffffffffffffffffffffffffffffffffffffffff021916908373ffffffffffffffffffffffffffffffffffffffff16021790555062000218565b80600560006101000a81548160ff021916908360ff16021790555050565b828054600181600116156101000203166002900490600052602060002090601f0160209004810192826200019a5760008555620001e6565b82601f10620001b557805160ff1916838001178555620001e6565b82800160010185558215620001e6579182015b82811115620001e5578251825591602001919060010190620001c8565b5b509050620001f59190620001f9565b5090565b5b8082111562000214576000816000905550600101620001fa565b5090565b611f7d80620002286000396000f3fe6080604052600436106100f75760003560e01c806395d89b411161008a578063affb933011610059578063affb9330146106b6578063ca5d088014610707578063dd62ed3e1461071e578063f851a440146107a3576100f8565b806395d89b41146104df5780639b19251a1461056f578063a457c2d7146105d4578063a9059cbb14610645576100f8565b8063313ce567116100c6578063313ce56714610376578063365b98b2146103a4578063395093511461040957806370a082311461047a576100f8565b806306fdde03146101b9578063095ea7b31461024957806318160ddd146102ba57806323b872dd146102e5576100f8565b5b6000600760003373ffffffffffffffffffffffffffffffffffffffff1673ffffffffffffffffffffffffffffffffffffffff16815260200190815260200160002054116101ad576040517f08c379a000000000000000000000000000000000000000000000000000000000815260040180806020018281038252601a8152602001807f61646472657373206973206e6f742077686974656c697374656400000000000081525060200191505060405180910390fd5b6101b734336107e4565b005b3480156101c557600080fd5b506101ce6109fc565b6040518080602001828103825283818151815260200191508051906020019080838360005b8381101561020e5780820151818401526020810190506101f3565b50505050905090810190601f16801561023b5780820380516001836020036101000a031916815260200191505b509250505060405180910390f35b34801561025557600080fd5b506102a26004803603604081101561026c57600080fd5b81019080803573ffffffffffffffffffffffffffffffffffffffff16906020019092919080359060200190929190505050610a9e565b60405180821515815260200191505060405180910390f35b3480156102c657600080fd5b506102cf610abc565b6040518082815260200191505060405180910390f35b3480156102f157600080fd5b5061035e6004803603606081101561030857600080fd5b81019080803573ffffffffffffffffffffffffffffffffffffffff169060200190929190803573ffffffffffffffffffffffffffffffffffffffff16906020019092919080359060200190929190505050610ac6565b60405180821515815260200191505060405180910390f35b34801561038257600080fd5b5061038b610b9f565b604051808260ff16815260200191505060405180910390f35b3480156103b057600080fd5b506103dd600480360360208110156103c757600080fd5b8101908080359060200190929190505050610bb6565b604051808273ffffffffffffffffffffffffffffffffffffffff16815260200191505060405180910390f35b34801561041557600080fd5b506104626004803603604081101561042c57600080fd5b81019080803573ffffffffffffffffffffffffffffffffffffffff16906020019092919080359060200190929190505050610bf5565b60405180821515815260200191505060405180910390f35b34801561048657600080fd5b506104c96004803603602081101561049d57600080fd5b81019080803573ffffffffffffffffffffffffffffffffffffffff169060200190929190505050610ca8565b6040518082815260200191505060405180910390f35b3480156104eb57600080fd5b506104f4610cf0565b6040518080602001828103825283818151815260200191508051906020019080838360005b83811015610534578082015181840152602081019050610519565b50505050905090810190601f1680156105615780820380516001836020036101000a031916815260200191505b509250505060405180910390f35b34801561057b57600080fd5b506105be6004803603602081101561059257600080fd5b81019080803573ffffffffffffffffffffffffffffffffffffffff169060200190929190505050610d92565b6040518082815260200191505060405180910390f35b3480156105e057600080fd5b5061062d600480360360408110156105f757600080fd5b81019080803573ffffffffffffffffffffffffffffffffffffffff16906020019092919080359060200190929190505050610daa565b60405180821515815260200191505060405180910390f35b34801561065157600080fd5b5061069e6004803603604081101561066857600080fd5b81019080803573ffffffffffffffffffffffffffffffffffffffff16906020019092919080359060200190929190505050610e77565b60405180821515815260200191505060405180910390f35b3480156106c257600080fd5b50610705600480360360208110156106d957600080fd5b81019080803573ffffffffffffffffffffffffffffffffffffffff169060200190929190505050610e95565b005b34801561071357600080fd5b5061071c611048565b005b34801561072a57600080fd5b5061078d6004803603604081101561074157600080fd5b81019080803573ffffffffffffffffffffffffffffffffffffffff169060200190929190803573ffffffffffffffffffffffffffffffffffffffff169060200190929190505050611162565b6040518082815260200191505060405180910390f35b3480156107af57600080fd5b506107b86111e9565b604051808273ffffffffffffffffffffffffffffffffffffffff16815260200191505060405180910390f35b670de0b6b3a764000082816107f557fe5b049150600082141561086f576040517f08c379a000000000000000000000000000000000000000000000000000000000815260040180806020018281038252600a8152602001807f56616c756520697320300000000000000000000000000000000000000000000081525060200191505060405180910390fd5b600061087b838361120f565b905060065481606485020261088e610abc565b01106108a461089b610abc565b60065403611365565b6040516020018080611eb86022913960220182805190602001908083835b602083106108e557805182526020820191506020810190506020830392506108c2565b6001836020036101000a038019825116818451168082178552505050505050905001807f2054524c2072656d61696e696e67000000000000000000000000000000000000815250600e01915050604051602081830303815290604052906109e7576040517f08c379a00000000000000000000000000000000000000000000000000000000081526004018080602001828103825283818151815260200191508051906020019080838360005b838110156109ac578082015181840152602081019050610991565b50505050905090810190601f1680156109d95780820380516001836020036101000a031916815260200191505b509250505060405180910390fd5b506109f7828260648602026114a9565b505050565b606060038054600181600116156101000203166002900480601f016020809104026020016040519081016040528092919081815260200182805460018160011615610100020316600290048015610a945780601f10610a6957610100808354040283529160200191610a94565b820191906000526020600020905b815481529060010190602001808311610a7757829003601f168201915b5050505050905090565b6000610ab2610aab611670565b8484611678565b6001905092915050565b6000600254905090565b6000610ad384848461186f565b610b9484610adf611670565b610b8f85604051806060016040528060288152602001611e9060289139600160008b73ffffffffffffffffffffffffffffffffffffffff1673ffffffffffffffffffffffffffffffffffffffff1681526020019081526020016000206000610b45611670565b73ffffffffffffffffffffffffffffffffffffffff1673ffffffffffffffffffffffffffffffffffffffff16815260200190815260200160002054611b309092919063ffffffff16565b611678565b600190509392505050565b6000600560009054906101000a900460ff16905090565b60098181548110610bc657600080fd5b906000526020600020016000915054906101000a900473ffffffffffffffffffffffffffffffffffffffff1681565b6000610c9e610c02611670565b84610c998560016000610c13611670565b73ffffffffffffffffffffffffffffffffffffffff1673ffffffffffffffffffffffffffffffffffffffff16815260200190815260200160002060008973ffffffffffffffffffffffffffffffffffffffff1673ffffffffffffffffffffffffffffffffffffffff16815260200190815260200160002054611bea90919063ffffffff16565b611678565b6001905092915050565b60008060008373ffffffffffffffffffffffffffffffffffffffff1673ffffffffffffffffffffffffffffffffffffffff168152602001908152602001600020549050919050565b606060048054600181600116156101000203166002900480601f016020809104026020016040519081016040528092919081815260200182805460018160011615610100020316600290048015610d885780601f10610d5d57610100808354040283529160200191610d88565b820191906000526020600020905b815481529060010190602001808311610d6b57829003601f168201915b5050505050905090565b60076020528060005260406000206000915090505481565b6000610e6d610db7611670565b84610e6885604051806060016040528060258152602001611f236025913960016000610de1611670565b73ffffffffffffffffffffffffffffffffffffffff1673ffffffffffffffffffffffffffffffffffffffff16815260200190815260200160002060008a73ffffffffffffffffffffffffffffffffffffffff1673ffffffffffffffffffffffffffffffffffffffff16815260200190815260200160002054611b309092919063ffffffff16565b611678565b6001905092915050565b6000610e8b610e84611670565b848461186f565b6001905092915050565b600a60009054906101000a900473ffffffffffffffffffffffffffffffffffffffff1673ffffffffffffffffffffffffffffffffffffffff163373ffffffffffffffffffffffffffffffffffffffff1614610f58576040517f08c379a00000000000000000000000000000000000000000000000000000000081526004018080602001828103825260138152602001807f53656e646572206973206e6f742061646d696e0000000000000000000000000081525060200191505060405180910390fd5b6001600760008373ffffffffffffffffffffffffffffffffffffffff1673ffffffffffffffffffffffffffffffffffffffff168152602001908152602001600020819055506000600860008373ffffffffffffffffffffffffffffffffffffffff1673ffffffffffffffffffffffffffffffffffffffff168152602001908152602001600020819055506009819080600181540180825580915050600190039060005260206000200160009091909190916101000a81548173ffffffffffffffffffffffffffffffffffffffff021916908373ffffffffffffffffffffffffffffffffffffffff16021790555050565b600a60009054906101000a900473ffffffffffffffffffffffffffffffffffffffff1673ffffffffffffffffffffffffffffffffffffffff163373ffffffffffffffffffffffffffffffffffffffff161461110b576040517f08c379a00000000000000000000000000000000000000000000000000000000081526004018080602001828103825260138152602001807f53656e646572206973206e6f742061646d696e0000000000000000000000000081525060200191505060405180910390fd5b6000600961111d600980549050611c72565b8154811061112757fe5b9060005260206000200160009054906101000a900473ffffffffffffffffffffffffffffffffffffffff16905061115f8160646114a9565b50565b6000600160008473ffffffffffffffffffffffffffffffffffffffff1673ffffffffffffffffffffffffffffffffffffffff16815260200190815260200160002060008373ffffffffffffffffffffffffffffffffffffffff1673ffffffffffffffffffffffffffffffffffffffff16815260200190815260200160002054905092915050565b600a60009054906101000a900473ffffffffffffffffffffffffffffffffffffffff1681565b600080600860008473ffffffffffffffffffffffffffffffffffffffff1673ffffffffffffffffffffffffffffffffffffffff1681526020019081526020016000205484019050610190811180156112a657506003600760008573ffffffffffffffffffffffffffffffffffffffff1673ffffffffffffffffffffffffffffffffffffffff16815260200190815260200160002054105b156112bb576112b6600384611ceb565b61131c565b60c88111801561130a57506002600760008573ffffffffffffffffffffffffffffffffffffffff1673ffffffffffffffffffffffffffffffffffffffff16815260200190815260200160002054105b1561131b5761131a600284611ceb565b5b5b600760008473ffffffffffffffffffffffffffffffffffffffff1673ffffffffffffffffffffffffffffffffffffffff1681526020019081526020016000205491505092915050565b606060008214156113ad576040518060400160405280600181526020017f300000000000000000000000000000000000000000000000000000000000000081525090506114a4565b600082905060005b600082146113d7578080600101915050600a82816113cf57fe5b0491506113b5565b60008167ffffffffffffffff811180156113f057600080fd5b506040519080825280601f01601f1916602001820160405280156114235781602001600182028036833780820191505090505b50905060006001830390505b6000861461149c57600a868161144157fe5b0660300160f81b8282806001900393508151811061145b57fe5b60200101907effffffffffffffffffffffffffffffffffffffffffffffffffffffffffffff1916908160001a905350600a868161149457fe5b04955061142f565b819450505050505b919050565b600073ffffffffffffffffffffffffffffffffffffffff168273ffffffffffffffffffffffffffffffffffffffff16141561154c576040517f08c379a000000000000000000000000000000000000000000000000000000000815260040180806020018281038252601f8152602001807f45524332303a206d696e7420746f20746865207a65726f20616464726573730081525060200191505060405180910390fd5b61155860008383611e1f565b61156d81600254611bea90919063ffffffff16565b6002819055506115c4816000808573ffffffffffffffffffffffffffffffffffffffff1673ffffffffffffffffffffffffffffffffffffffff16815260200190815260200160002054611bea90919063ffffffff16565b6000808473ffffffffffffffffffffffffffffffffffffffff1673ffffffffffffffffffffffffffffffffffffffff168152602001908152602001600020819055508173ffffffffffffffffffffffffffffffffffffffff16600073ffffffffffffffffffffffffffffffffffffffff167fddf252ad1be2c89b69c2b068fc378daa952ba7f163c4a11628f55a4df523b3ef836040518082815260200191505060405180910390a35050565b600033905090565b600073ffffffffffffffffffffffffffffffffffffffff168373ffffffffffffffffffffffffffffffffffffffff1614156116fe576040517f08c379a0000000000000000000000000000000000000000000000000000000008152600401808060200182810382526024815260200180611eff6024913960400191505060405180910390fd5b600073ffffffffffffffffffffffffffffffffffffffff168273ffffffffffffffffffffffffffffffffffffffff161415611784576040517f08c379a0000000000000000000000000000000000000000000000000000000008152600401808060200182810382526022815260200180611e486022913960400191505060405180910390fd5b80600160008573ffffffffffffffffffffffffffffffffffffffff1673ffffffffffffffffffffffffffffffffffffffff16815260200190815260200160002060008473ffffffffffffffffffffffffffffffffffffffff1673ffffffffffffffffffffffffffffffffffffffff168152602001908152602001600020819055508173ffffffffffffffffffffffffffffffffffffffff168373ffffffffffffffffffffffffffffffffffffffff167f8c5be1e5ebec7d5bd14f71427d1e84f3dd0314c0f7b2291e5b200ac8c7c3b925836040518082815260200191505060405180910390a3505050565b600073ffffffffffffffffffffffffffffffffffffffff168373ffffffffffffffffffffffffffffffffffffffff1614156118f5576040517f08c379a0000000000000000000000000000000000000000000000000000000008152600401808060200182810382526025815260200180611eda6025913960400191505060405180910390fd5b600073ffffffffffffffffffffffffffffffffffffffff168273ffffffffffffffffffffffffffffffffffffffff16141561197b576040517f08c379a0000000000000000000000000000000000000000000000000000000008152600401808060200182810382526023815260200180611e256023913960400191505060405180910390fd5b611986838383611e1f565b6119f181604051806060016040528060268152602001611e6a602691396000808773ffffffffffffffffffffffffffffffffffffffff1673ffffffffffffffffffffffffffffffffffffffff16815260200190815260200160002054611b309092919063ffffffff16565b6000808573ffffffffffffffffffffffffffffffffffffffff1673ffffffffffffffffffffffffffffffffffffffff16815260200190815260200160002081905550611a84816000808573ffffffffffffffffffffffffffffffffffffffff1673ffffffffffffffffffffffffffffffffffffffff16815260200190815260200160002054611bea90919063ffffffff16565b6000808473ffffffffffffffffffffffffffffffffffffffff1673ffffffffffffffffffffffffffffffffffffffff168152602001908152602001600020819055508173ffffffffffffffffffffffffffffffffffffffff168373ffffffffffffffffffffffffffffffffffffffff167fddf252ad1be2c89b69c2b068fc378daa952ba7f163c4a11628f55a4df523b3ef836040518082815260200191505060405180910390a3505050565b6000838311158290611bdd576040517f08c379a00000000000000000000000000000000000000000000000000000000081526004018080602001828103825283818151815260200191508051906020019080838360005b83811015611ba2578082015181840152602081019050611b87565b50505050905090810190601f168015611bcf5780820380516001836020036101000a031916815260200191505b509250505060405180910390fd5b5082840390509392505050565b600080828401905083811015611c68576040517f08c379a000000000000000000000000000000000000000000000000000000000815260040180806020018281038252601b8152602001807f536166654d6174683a206164646974696f6e206f766572666c6f77000000000081525060200191505060405180910390fd5b8091505092915050565b6000600b60008154809291906001019190505550814233600b54604051602001808481526020018373ffffffffffffffffffffffffffffffffffffffff1660601b815260140182815260200193505050506040516020818303038152906040528051906020012060001c81611ce357fe5b069050919050565b60008211611d61576040517f08c379a00000000000000000000000000000000000000000000000000000000081526004018080602001828103825260108152602001807f54696572206973206e656761746976650000000000000000000000000000000081525060200191505060405180910390fd5b60048210611dd7576040517f08c379a00000000000000000000000000000000000000000000000000000000081526004018080602001828103825260108152602001807f5469657220697320746f6f20686967680000000000000000000000000000000081525060200191505060405180910390fd5b81600760008373ffffffffffffffffffffffffffffffffffffffff1673ffffffffffffffffffffffffffffffffffffffff168152602001908152602001600020819055505050565b50505056fe45524332303a207472616e7366657220746f20746865207a65726f206164647265737345524332303a20617070726f766520746f20746865207a65726f206164647265737345524332303a207472616e7366657220616d6f756e7420657863656564732062616c616e636545524332303a207472616e7366657220616d6f756e74206578636565647320616c6c6f77616e6365416d6f756e7420697320746f6f206869676820746865726520617265206f6e6c792045524332303a207472616e736665722066726f6d20746865207a65726f206164647265737345524332303a20617070726f76652066726f6d20746865207a65726f206164647265737345524332303a2064656372656173656420616c6c6f77616e63652062656c6f77207a65726fa2646970667358221220cd39e79ca7a92856637515202de6be507258783e7b52c1c91e5dadc05854f5b564736f6c63430007060033",
  "immutableReferences": {},
  "source": "// contracts/GLDToken.sol\n// SPDX-License-Identifier: MIT\npragma solidity >=0.6.0 <0.8.0;\n\nimport \"@openzeppelin/contracts/token/ERC20/ERC20.sol\";\nimport \"@openzeppelin/contracts/access/Ownable.sol\";\n\n\ncontract Trealos is ERC20 {\n    uint256 private maxSupply;\n    mapping (address => uint) public whitelist;\n    mapping (address => uint) amountSentUsers;\n    address[] public users;\n    address public admin;\n    uint randNonce = 0; \n\n    constructor() ERC20(\"Trealos\", \"TRL\") {\n        _setupDecimals(2);\n        maxSupply=1001002093092000000000000000000000090000;\n        admin = msg.sender;\n    }\n\n    function uint2str(uint _i) internal pure returns (string memory _uintAsString) {\n    if (_i == 0) {\n        return \"0\";\n    }\n    uint j = _i;\n    uint len;\n    while (j != 0) {\n        len++;\n        j /= 10;\n    }\n    bytes memory bstr = new bytes(len);\n    uint k = len - 1;\n    while (_i != 0) {\n        bstr[k--] = byte(uint8(48 + _i % 10));\n        _i /= 10;\n    }\n    return string(bstr);\n    }\n\n    modifier isWhiteListed() {\n        require(whitelist[msg.sender] > 0, \"address is not whitelisted\");\n        _;\n    }\n\n    fallback()\n    external\n    payable isWhiteListed{ \n        getToken(msg.value,msg.sender);\n    }\n\n    function getToken(uint value, address sender) internal {\n        value/=1000000000000000000;\n        require(\n            value!=0,\n            \"Value is 0\"\n        );\n\n        uint tiers = checkTiers(value, sender);\n        require(\n            totalSupply()+value*100*tiers<maxSupply,    //msg.value is in wei\n            string(abi.encodePacked(\"Amount is too high there are only \", uint2str(maxSupply-totalSupply()),\" TRL remaining\"))\n        ); \n        \n        _mint(sender, value*100*tiers);\n    }\n\n    function adminAddUser(address newUser) public {\n        require(\n            msg.sender == admin,\n            \"Sender is not admin\"\n        );\n        whitelist[newUser] = 1;\n        amountSentUsers[newUser] = 0;\n        users.push(newUser);\n    }\n\n    function changeTiers(uint tiers, address user) internal {\n        require(\n            tiers > 0,\n            \"Tier is negative\"\n        );\n        require(\n            tiers < 4,\n            \"Tier is too high\"\n        );\n        whitelist[user] = tiers;\n    }\n\n    function checkTiers(uint amountSend, address user) internal returns (uint tiers) {\n        uint totalAmountSent = amountSend + amountSentUsers[user];\n        if (totalAmountSent > 400 && whitelist[user] < 3) {\n            changeTiers(3, user);\n        } else if (totalAmountSent > 200 && whitelist[user] < 2) {\n            changeTiers(2, user);\n        }\n        return whitelist[user];\n    }\n\n    function airDrop() public {\n        require(\n            msg.sender == admin,\n            \"Sender is not admin\"\n        );\n        address luckyOne = users[randMod(users.length)];\n        _mint(luckyOne, 100);\n    }\n    // Defining a function to generate \n    // a random number \n    function randMod(uint max) internal returns(uint)  \n    { \n       // increase nonce \n       randNonce++;   \n       return uint(keccak256(abi.encodePacked(block.timestamp,  \n                                              msg.sender,  \n                                              randNonce))) % max; \n    } \n}",
  "sourcePath": "/Users/lucaslevy/ERC20_Trea/contracts/Token.sol",
  "compiler": {
    "name": "solc",
    "version": "0.7.6+commit.7338295f.Emscripten.clang"
  },
  "schemaVersion": "3.3.4",
  "updatedAt": "2021-03-13T16:20:10.251Z",
  "networkType": "ethereum",
  "devdoc": {
    "kind": "dev",
    "methods": {
      "allowance(address,address)": {
        "details": "See {IERC20-allowance}."
      },
      "approve(address,uint256)": {
        "details": "See {IERC20-approve}. Requirements: - `spender` cannot be the zero address."
      },
      "balanceOf(address)": {
        "details": "See {IERC20-balanceOf}."
      },
      "decimals()": {
        "details": "Returns the number of decimals used to get its user representation. For example, if `decimals` equals `2`, a balance of `505` tokens should be displayed to a user as `5,05` (`505 / 10 ** 2`). Tokens usually opt for a value of 18, imitating the relationship between Ether and Wei. This is the value {ERC20} uses, unless {_setupDecimals} is called. NOTE: This information is only used for _display_ purposes: it in no way affects any of the arithmetic of the contract, including {IERC20-balanceOf} and {IERC20-transfer}."
      },
      "decreaseAllowance(address,uint256)": {
        "details": "Atomically decreases the allowance granted to `spender` by the caller. This is an alternative to {approve} that can be used as a mitigation for problems described in {IERC20-approve}. Emits an {Approval} event indicating the updated allowance. Requirements: - `spender` cannot be the zero address. - `spender` must have allowance for the caller of at least `subtractedValue`."
      },
      "increaseAllowance(address,uint256)": {
        "details": "Atomically increases the allowance granted to `spender` by the caller. This is an alternative to {approve} that can be used as a mitigation for problems described in {IERC20-approve}. Emits an {Approval} event indicating the updated allowance. Requirements: - `spender` cannot be the zero address."
      },
      "name()": {
        "details": "Returns the name of the token."
      },
      "symbol()": {
        "details": "Returns the symbol of the token, usually a shorter version of the name."
      },
      "totalSupply()": {
        "details": "See {IERC20-totalSupply}."
      },
      "transfer(address,uint256)": {
        "details": "See {IERC20-transfer}. Requirements: - `recipient` cannot be the zero address. - the caller must have a balance of at least `amount`."
      },
      "transferFrom(address,address,uint256)": {
        "details": "See {IERC20-transferFrom}. Emits an {Approval} event indicating the updated allowance. This is not required by the EIP. See the note at the beginning of {ERC20}. Requirements: - `sender` and `recipient` cannot be the zero address. - `sender` must have a balance of at least `amount`. - the caller must have allowance for ``sender``'s tokens of at least `amount`."
      }
    },
    "version": 1
  },
  "userdoc": {
    "kind": "user",
    "methods": {},
    "version": 1
  }
}